:100000000200AB8B088A09890AE4FC1200CA78F066
:10001000767DE4FEEEC39D5025AB08AA09A90A8EA1
:100020008275830012007EFF1200FEAB08AA09A9A8
:100030000A8E8275830012007E62040E80D6AF04A1
:100040000200FE75860543AE101200E37BFF7A01C5
:1000500079087D021200037F0A1200F37BFF7A0108
:10006000790A7D081200037F0A1200F37BFF7A01F0
:1000700079127D061200037F0A1200F380CEBB01C5
:100080000CE58229F582E5833AF583E0225006E902
:100090002582F8E622BBFE06E92582F8E222E58207
:1000A00029F582E5833AF583E49322908000E4FF0A
:1000B000FEF0A30FBF00010EBE03F6BF40F378BFF2
:1000C000E4F6D8FD75810B02004378F0760DE4FE6E
:1000D000EEC394027480948050087FFF1200FE0EDD
:1000E00080EE2243920878F1747F56F678F47440DB
:1000F00046F6227E047DC8DDFEDEFCDFF62278F3C4
:10010000E620E0FA18A60722018071110000000025
:080110000000510A0000260066
:00000001FF
