:100000000201B9BB010689828A83E0225002E722FD
:10001000BBFE02E32289828A83E49322C2D5EC30BC
:10002000E709B2D5E4C39DFDE49CFCEE30E715B2D0
:10003000D5E4C39FFFE49EFE120052C3E49DFDE49D
:100040009CFC800312005230D507C3E49FFFE49E5E
:10005000FE22BC000BBE0029EF8DF084FFADF02224
:10006000E4CCF875F008EF2FFFEE33FEEC33FCEE36
:100070009DEC984005FCEE9DFE0FD5F0E9E4CEFD29
:1000800022EDF8F5F0EE8420D21CFEADF075F008FC
:10009000EF2FFFED33FD4007985006D5F0F222C355
:1000A00098FD0FD5F0EA22AE0DAF0E7C037DE8126D
:1000B000001C7C007D0A12001C8D08AE0DAF0E7C6A
:1000C000007D6412001C7C007D0A12001C8D09AEAC
:1000D0000DAF0E7C007D0A12001C7C007D0A120010
:1000E0001C8D0AAE0DAF0E7C007D0A12001C8D0B1C
:1000F000E4F50C2275860543AC2043AD0843AE0AF7
:100100001201931201E21201D012013B1200A71258
:10011000017A7BFF7A0179E91201A67B007A0079E6
:10012000081201A67BFF7A0179F01201A67A017903
:10013000F31201A67FE81201C580CEE5EA540FFE56
:10014000ADE17C00E42DF50EEC3EF50DE50EC4F8B6
:10015000540FC868F50EE50DC454F048F50DFEE5E2
:100160000E7804CEA2E713CE13D8F8F50E8E0D2428
:1001700028F50E740A350DF50D2274302508F508A2
:1001800074302509F5097430250AF50A7430250BF9
:10019000F50B2243B10843B6A043B60143B2B843BE
:1001A000B50A439F0122120003FF600C1201DA74AA
:1001B0000129F9E43AFA80EE2278BFE4F6D8FD7519
:1001C000810E0200F47E047DC8DDFEDEFCDFF62237
:1001D000D29ED29AD29D759AD0228F993099FDC223
:1001E000992253E6BF43E80122566261743A200027
:0501F0006D56000A003D
:00000001FF
