:100000000200CC75860543AE104392087BFF7A014F
:1000100079177F041200A57BFF7A01791B7F0412F8
:10002000007B7FC812010C7BFF7A01791F7F0212CF
:10003000007B7FC812010C7BFF7A0179217F0412BB
:10004000007B7F7F1200FE7FC812010C80BEBB01C7
:100050000CE58229F582E5833AF583E0225006E932
:100060002582F8E622BBFE06E92582F8E222E58237
:1000700029F582E5833AF583E493228B088A09897E
:100080000AAE0778F0762578F57637087682087616
:10009000C0E4FDEDC39E500CAB08AA09A90A1200EA
:1000A000EB0D80EF228B088A09890AAE0778F0767B
:1000B0000578F5765E0876F0E4FDEDC39E500CAB56
:1000C00008AA09A90A1200EB0D80EF22908000E433
:1000D000FFFEF0A30FBF00010EBE03F6BF40F37892
:1000E000BFE4F6D8FD75810A0200038D8275830096
:1000F00012004EFF78F3E620E0FA18A6072278F007
:10010000760578F576500876020200F47E047DC804
:10011000DDFEDEFCDFF622FFFFFF7F7400021F72B0
:05012000717000801267
:00000001FF
