:100000000200F4C2D5EC30E709B2D5E4C39DFDE4AB
:100010009CFCEE30E715B2D5E4C39FFFE49EFE12D0
:100020000039C3E49DFDE49CFC800312003930D507
:1000300007C3E49FFFE49EFE22BC000BBE0029EF35
:100040008DF084FFADF022E4CCF875F008EF2FFFBF
:10005000EE33FEEC33FCEE9DEC984005FCEE9DFE8D
:100060000FD5F0E9E4CEFD22EDF8F5F0EE8420D2D4
:100070001CFEADF075F008EF2FFFED33FD40079843
:100080005006D5F0F222C398FD0FD5F0EA2275088C
:10009000037509E8AFEFAB077A00E5F154F075F0AE
:1000A00010A42BFBEA35F0FAEBC4F8540FC868FB38
:1000B000EAC454F048FAEBAE027804CEA2E713CEBD
:1000C00013D8F8AA067C007D24FF120003AC08AD0B
:1000D00009120003AA06AB072275860575AD0C123E
:1000E00000E712008E80FB43E62843B10875E82044
:1000F00053F7FD2278BFE4F6D8FD7581090200D9D7
:00000001FF
